:020000040000FA
:100000000C9463000C948B000C948B000C948B006C
:100010000C948B000C948B000C948B000C94480671
:100020000C948B000C948B000C948B000C948B0024
:100030000C948B000C948B000C948B000C948B0014
:100040000C94FE050C948B000C94CA060C94A40628
:100050000C948B000C948B000C948B000C948B00F4
:100060000C948B000C948B000200000000240027ED
:10007000002A0000000000250028002B00000000DE
:1000800000230026002900040404040404040402DC
:100090000202020202030303030303010204081025
:1000A00020408001020408102001020408102000F2
:1000B0000000080002010000030407000000000027
:1000C00000000000FC0611241FBECFEFD8E0DEBF09
:1000D000CDBF12E0A0E0B1E0E4E8F8E102C0059095
:1000E0000D92A831B107D9F723E0A8E1B2E001C031
:1000F0001D92AE31B207E1F710E0C3E6D0E004C0D4
:100100002197FE010E943A0CC236D107C9F70E941E
:1001100046070C94400C0C940000833081F028F4C6
:10012000813099F08230A9F008958730A9F08830A5
:10013000C9F08430B1F4809180008F7D03C080913C
:1001400080008F7780938000089584B58F7784BD79
:10015000089584B58F7DFBCF8091B0008F77809319
:10016000B00008958091B0008F7DF9CFCF93DF93D9
:10017000282F30E0F901E155FF4F8491F901E55650
:10018000FF4FD491F901E957FF4FC491CC23A1F05F
:1001900081110E948D00EC2FF0E0EE0FFF1FE3585D
:1001A000FF4FA591B491EC91ED2381E090E009F42B
:1001B00080E0DF91CF91089580E090E0FACF1F9327
:1001C000CF93DF93282F30E0F901E155FF4F849161
:1001D000F901E556FF4FD491F901E957FF4FC4915A
:1001E000CC23A9F0162F81110E948D00EC2FF0E096
:1001F000EE0FFF1FED58FF4FA591B4918FB7F89404
:10020000EC91111108C0D095DE23DC938FBFDF91F4
:10021000CF911F910895DE2BF8CFCF93DF9390E01D
:10022000FC01E556FF4F249189579F4FFC018491B3
:100230008823D1F090E0880F991FFC01E759FF4F08
:10024000A591B491FC01ED58FF4FC591D491623056
:1002500071F49FB7F8943C91822F809583238C93FF
:10026000E8812E2B28839FBFDF91CF9108958FB710
:10027000F894EC912E2B2C938FBFF6CF3FB7F894C8
:100280008091650290916602A0916702B091680228
:1002900026B5A89B05C02F3F19F00196A11DB11DE1
:1002A0003FBFBA2FA92F982F8827BC01CD01620F1D
:1002B000711D811D911D42E0660F771F881F991FD8
:1002C0004A95D1F708958F929F92AF92BF92CF92A5
:1002D000DF92EF92FF924B015C010E943E016B01A5
:1002E0007C010E943E016C197D098E099F09683EC0
:1002F000734081059105A8F321E0821A9108A108B5
:10030000B10888EEC80E83E0D81EE11CF11C8114F0
:100310009104A104B10429F7FF90EF90DF90CF90F2
:10032000BF90AF909F908F9008952FB7F8946091F1
:1003300061027091620280916302909164022FBF0A
:1003400008959091180189130BC0E8E6F0E0E4915C
:100350009FEF90931801E13049F028F0E23061F00E
:1003600060E00C94DF0010926E00FACF90916F0065
:100370009D7F90936F00F4CF909170009D7F90933C
:10038000700091E09093B0009091B100987F9460DC
:100390009093B1001092B300E3CFAF92BF92CF928F
:1003A000DF92EF92FF920F931F93CF93DF936C0135
:1003B0007B018B01040F151FEB015E01AE18BF0816
:1003C000C017D10759F06991D601ED91FC910190C8
:1003D000F081E02DC6010995892B79F7C501DF91E0
:1003E000CF911F910F91FF90EF90DF90CF90BF9032
:1003F000AF900895FC01538D448D252F30E0842F5C
:1004000090E0821B930B541710F0CF96089501973C
:100410000895FC01918D828D981761F0A28DAE0F29
:10042000BF2FB11D5D968C91928D9F5F9F73928FB0
:1004300090E008958FEF9FEF0895FC01918D828DDC
:10044000981731F0828DE80FF11D858D90E00895A9
:100450008FEF9FEF0895FC01918D228D892F90E001
:10046000805C9F4F821B91098F739927089589E6BD
:1004700092E00E942B0221E0892B09F420E0822FD8
:10048000089580E090E0892B29F00E9437028111C5
:100490000C9400000895FC01A48DA80FB92FB11D84
:1004A000A35ABF4F2C91848D90E001968F739927AA
:1004B000848FA689B7892C93A089B1898C91837088
:1004C00080648C93938D848D981306C00288F38981
:1004D000E02D80818F7D80830895EF92FF920F93AE
:1004E0001F93CF93DF93EC0181E0888F9B8D8C8DE0
:1004F00098131AC0E889F989808185FF15C09FB7D4
:10050000F894EE89FF896083E889F9898081837096
:10051000806480839FBF81E090E0DF91CF911F9145
:100520000F91FF90EF900895F62E0B8D10E00F5F66
:100530001F4F0F731127E02E8C8D8E110CC00FB63C
:1005400007FCFACFE889F989808185FFF5CFCE01D4
:100550000E944B02F1CFEB8DEC0FFD2FF11DE35A02
:10056000FF4FF0829FB7F8940B8FEA89FB89808157
:100570008062CFCFCF93DF93EC01888D8823B9F0D1
:10058000AA89BB89E889F9898C9185FD03C080819E
:1005900086FD0DC00FB607FCF7CF8C9185FFF2CF1B
:1005A000808185FFEDCFCE010E944B02E9CFDF9124
:1005B000CF910895089590E080E00895CF93DF9360
:1005C000EC0160E08E810E94DF0061E08E810E947C
:1005D000DF0060E08E810E94DF008BE891E00197F0
:1005E000F1F7DF91CF910895CF92DF92EF92FF92D2
:1005F0000F931F93CF93DF936C017C0187E0E80E8C
:10060000F11CD0E0C0E0062F10E0B8010C2E02C0B3
:10061000759567950A94E2F76170F70181917F0102
:100620000E94DF002196C430D10579F7C601DF9121
:10063000CF911F910F91FF90EF90DF90CF900C948E
:10064000DE02CF92DF92EF92FF920F931F93CF9330
:10065000DF93EC01F62E642F8C810E94DF008D81E8
:100660008F3F19F060E00E94DF000F2D10E08F85B2
:1006700084FF25C06E0187E0C80ED11CF12CE12C4F
:10068000B8010E2C02C0759567950A94E2F7617067
:10069000F60181916F010E94DF00FFEFEF1AFF0A60
:1006A00088E0E816F10461F7CE01DF91CF911F9148
:1006B0000F91FF90EF90DF90CF900C94DE02B80185
:1006C00084E0759567958A95E1F7CE010E94F40262
:1006D0006F2DCE01DF91CF911F910F91FF90EF9081
:1006E000DF90CF900C94F40240E0682F86E093E016
:1006F0000C94210381E00E9474038BE39FE1019736
:10070000F1F70895CF93DF93823029F49091150388
:100710009860909315038093190310921A0380E454
:1007200080931B0380E180931C0380E580931D036D
:1007300061E080910A030E940D0180910B038F3FBD
:1007400019F061E00E940D0161E080910C030E94AC
:100750000D01C6E0D3E09E01265033408091150381
:1007600084FD0BC084E090E021962817390744F4FB
:1007700061E08E810E940D01EECF88E090E0F4CF21
:100780008BE39DE00197F1F760E080910A030E94FE
:10079000DF0060E080910C030E94DF0080910B037A
:1007A0008F3F19F060E00E94DF008091150384FD07
:1007B00034C063E086E093E00E94F402CBE4D6E428
:1007C000CE010197F1F763E086E093E00E94F40226
:1007D0002197F1F763E086E093E00E94F40283E55D
:1007E00092E00197F1F762E086E093E00E94F40264
:1007F0008091150380620E94740384E08093160345
:100800008CE00E9474030E947A0382E080931703B5
:1008100086E0DF91CF910C94740380620E94740390
:100820008BE496E40197F1F78091150380620E94B2
:10083000740383E592E00197F1F7809115038062DC
:100840000E947403D5CF643008F063E090911903DF
:10085000691710F06FEF690FE62FF0E0EA5FFC4FC9
:100860009489890F80680C94740341E00E942103ED
:1008700081E090E008950F931F93CF93DF938B0156
:1008800028E0829FC001112480640E947403E80163
:10089000085F1F4F699186E093E00E943504C017FE
:1008A000D107C1F7DF91CF911F910F9108950F9359
:1008B0001F93CF93DF9381E080931F0101E312E048
:1008C000C0E0D1E0F801D08360E08C2F0E942304C7
:1008D00062E086E093E00E943504F801D18361E094
:1008E0008C2F0E94230462E086E093E00E9435048E
:1008F0000E5F1F4FCF5FC03129F782E090E09093E9
:100900001E0180931D0181E090E090931A01809375
:1009100019018FE090E090931C0180931B011092CD
:1009200056021092550261E082E00E94230460E0CA
:1009300086E093E00E94350460E08FE00E9423048B
:1009400061E086E093E00E9435040E949501609387
:1009500058027093590280935A0290935B026093FD
:100960005C0270935D0280935E0290935F02DF9160
:10097000CF911F910F910895FB0101900020E9F79D
:100980003197AF01461B570BDC01ED91FC910280C2
:10099000F381E02D09948F929F92AF92BF920F93B3
:1009A0001F93CF93DF93CDB7DEB7A1970FB6F8941F
:1009B000DEBF0FBECDBF19A2423008F44AE08E015F
:1009C0000F5D1F4F842E912CB12CA12CA5019401F9
:1009D0000E94E50BE62FB901CA01EA3004F5E05D9B
:1009E000D801EE938D01232B242B252B79F790E052
:1009F00080E0109729F0BD0186E093E00E94BC04DE
:100A0000A1960FB6F894DEBF0FBECDBFDF91CF9198
:100A10001F910F91BF90AF909F908F900895E95CC8
:100A2000DFCFCF92DF92EF92FF926C01990FEE0829
:100A3000FF08F7FE16C041E06DE286E093E00E94F9
:100A4000210366277727CB016C197D098E099F0941
:100A50004AE00E94CB040196FF90EF90DF90CF9088
:100A600008954AE0C701B601FF90EF90DF90CF9064
:100A70000C94CB04CF93DF93BC0189E692E00E94F3
:100A8000BC04EC016AEB71E089E692E00E94BC04D0
:100A90008C0F9D1FDF91CF910895CF92DF92EF923F
:100AA000FF920F931F93CF93DF93C0901D01D090BF
:100AB0001E01E0901901F0901A018601080F191F1C
:100AC0000031110514F00FE010E017FF02C010E034
:100AD00000E010931E0100931D01E701C60FD71F10
:100AE0001C161D0614F4C1E0D0E0D7FF02C0D0E010
:100AF000C0E0D0931A01C09319016C2F802F0E947F
:100B0000230460E086E093E00E9435046E2D8C2D76
:100B10000E942304C016D10619F4CE15DF0531F06A
:100B20006DEB71E086E093E00E94BC04E0911D0152
:100B3000F0911E018091190190911A01EE0FFF1F93
:100B4000EF5CFD4FE80FF91F8081882351F0108280
:100B50008091530290915402019690935402809395
:100B60005302E1E3F2E021E532E081E0908191116E
:100B700080E09181911180E032962E173F07B1F706
:100B800080931802882389F180911F01882369F1DD
:100B9000809157028F5F809357020E947A0360E032
:100BA00083E00E9423046FEB71E086E093E00E94F3
:100BB000BC0461E086E00E9423046091570270E06B
:100BC00090E080E04AE00E94CB046CED75E080E0AC
:100BD00090E00E946301DF91CF911F910F91FF90F0
:100BE000EF90DF90CF900C945704DF91CF911F913D
:100BF0000F91FF90EF90DF90CF9008951F920F928A
:100C00000FB60F9211242F933F938F939F93AF931F
:100C1000BF938091610290916202A0916302B091B2
:100C200064023091600223E0230F2D3758F50196BE
:100C3000A11DB11D20936002809361029093620216
:100C4000A0936302B0936402809165029091660262
:100C5000A0916702B09168020196A11DB11D809319
:100C6000650290936602A0936702B0936802BF91F9
:100C7000AF919F918F913F912F910F900FBE0F9049
:100C80001F90189526E8230F0296A11DB11DD2CF03
:100C90001F920F920FB60F9211242F933F934F93F1
:100CA0005F936F937F938F939F93AF93BF93EF93D4
:100CB000FF9380911E0290911F02A0912002B0919B
:100CC0002102892B8A2B8B2BD1F190911902E09173
:100CD0001A02F0911B0280818927808380911E0275
:100CE00090911F02A0912002B091210218161906BE
:100CF0001A061B069CF480911E0290911F02A0917F
:100D00002002B09121020197A109B10980931E022E
:100D100090931F02A0932002B0932102FF91EF91C4
:100D2000BF91AF919F918F917F916F915F914F9103
:100D30003F912F910F900FBE0F901F9018958091AB
:100D400018010E94A101EACF1F920F920FB60F92D5
:100D500011242F933F934F935F936F937F938F93C0
:100D60009F93AF93BF93EF93FF9389E692E00E9426
:100D70004B02FF91EF91BF91AF919F918F917F9126
:100D80006F915F914F913F912F910F900FBE0F90F8
:100D90001F9018951F920F920FB60F9211242F9348
:100DA0008F939F93EF93FF93E0917902F0917A02F2
:100DB0008081E0917F02F091800282FD1BC09081D2
:100DC000809182028F5F8F7320918302821741F09E
:100DD000E0918202F0E0E759FD4F958F8093820207
:100DE000FF91EF919F918F912F910F900FBE0F90D8
:100DF0001F9018958081F4CFE9E6F2E01382128209
:100E000088EE93E0A0E0B0E084839583A683B78367
:100E100080EA91E09183808385EC90E095878487D8
:100E200084EC90E09787868780EC90E0918B808BB4
:100E300081EC90E0938B828B82EC90E0958B848B9D
:100E400086EC90E0978B868B118E128E138E148E0B
:100E5000E6E0F3E01382128282EB91E091838083DB
:100E60008DE084838FEF85838CE086838AE087839F
:100E700089E0808788E0818787E0828713861486EF
:100E800015861686178681E00C948203789484B5C3
:100E9000826084BD84B5816084BD85B5826085BD76
:100EA00085B5816085BD80916E00816080936E0004
:100EB00010928100809181008260809381008091F6
:100EC00081008160809381008091800081608093A7
:100ED00080008091B10084608093B1008091B00067
:100EE00081608093B00080917A00846080937A0062
:100EF00080917A00826080937A0080917A0081608C
:100F000080937A0080917A00806880937A001092B2
:100F1000C100E0917902F0917A0282E08083E09151
:100F20007502F09176021082E0917702F0917802DA
:100F300080E1808310928102E0917D02F0917E0237
:100F400086E08083E0917B02F0917C028081806169
:100F50008083E0917B02F0917C02808188608083B5
:100F6000E0917B02F0917C02808180688083E09137
:100F70007B02F0917C0280818F7D808382E00E94E1
:100F8000820390E080E00E94BB0B8093510281E0DD
:100F900090E00E94BB0B8093520260E171E080E020
:100FA0000E943B0468E071E081E00E943B0460E045
:100FB00071E082E00E943B0462E083E00E940D0148
:100FC00062E084E00E940D0162E085E00E940D0174
:100FD00062E086E00E940D0161E08BE00E940D015D
:100FE0008BE00E94A1010E947A0360E082E00E94EF
:100FF00023046AEC71E086E093E00E94BC0461E0A7
:1010000080E00E9423046CED75E080E090E00E9497
:1010100063010E945704D1E0E2E92E2EE0E03E2E6B
:1010200006EA10E00E9495014B015C0180912F02BD
:10103000909130028F3191050CF06EC220912E02FA
:101040002111BFC0880F991F880F991FFC01E05E16
:10105000FE4FC080D180809118018B3009F03FC1D4
:10106000E8E6F0E0C491C7FDA2C061E08BE00E9419
:101070000D01CC2319F0C23009F0FBC1F12CE12C99
:1010800060E072E18AE790E0A70196010E94070CF8
:1010900029013A01DA01C9010197A109B1098F3F7C
:1010A0009105A105B10509F00CF4C7C160E472E433
:1010B0008FE090E0A70196010E94070C21503109B2
:1010C00041095109C23009F079C182E02F3F310551
:1010D0004105510509F00CF45BC060E970ED83E057
:1010E00090E0A70196010E94070C215031094109A7
:1010F000510983E02F3F31054105510509F00CF4FA
:1011000047C068E478EE81E090E0A70196010E9474
:10111000070C215031094109510984E02F3F310565
:1011200041055105A9F1A4F164E274EF80E090E07B
:10113000A70196010E94070C21503109410951096C
:1011400085E02F3F31054105510511F108F162E1BC
:101150007AE780E090E0A70196010E94070C2150F9
:1011600031094109510986E02F3F310541055105FB
:1011700079F070F09AE075946794579447949A9533
:10118000D1F7A3019201215031094109510987E0AA
:101190009091B100987F892B8093B100C13009F400
:1011A00093C1C23009F4A5C1CC2309F44EC1809289
:1011B0002A0290922B02A0922C02B0922D02D09380
:1011C0002E02E0902F02F090300280912A0290913E
:1011D0002B02A0912C02B0912D02881A990AAA0A1A
:1011E000BB0AF701EE0FFF1FEE0FFF1FE05EFE4F81
:1011F00082819381092E000CAA0BBB0B88169906DD
:10120000AA06BB0660F08BE00E94A1013FEFE31A43
:10121000F30AF0923002E0922F0210922E020E9406
:101220009501C0905C02D0905D02E0905E02F0906B
:101230005F026C197D098E099F0967397105810567
:10124000910508F470C183E00E94B600C0E0892BCC
:1012500059F46FEF7FEF90E080E00E944D0583ED41
:1012600091E00E943A05C1E084E00E94B600892B1B
:1012700059F461E070E090E080E00E944D058AED55
:1012800091E00E943A05C1E085E00E94B600892BFA
:1012900059F470E060E081E090E00E944D0580EE3E
:1012A00091E00E943A05C1E086E00E94B600892BD9
:1012B00009F037C170E060E08FEF9FEF0E944D05AD
:1012C00088EE91E00E943A050E94950160935C02CD
:1012D00070935D0280935E0290935F0224C18F3F02
:1012E00009F065CF8BE080931801E8E6F0E0C49147
:1012F000CF3F09F45CCFC13019F150F0C23009F48E
:101300003CC0C7FD54CF61E08BE00E940D01B3CE1D
:1013100014BC15BC84B5826084BD85B5816085BD73
:10132000F1018491E82FF0E0EE0FFF1FED58FF4F21
:1013300085919491F801849180931D02C0E095CE2F
:1013400010928000109281008091810088608093CB
:10135000810080918100816080938100F1018491FE
:10136000E82FF0E0EE0FFF1FED58FF4F85919491AD
:10137000F801849180931C0278CE1092B0001092F4
:10138000B1008091B00082608093B0008091B10084
:1013900081608093B100F1018491E82FF0E0EE0FBD
:1013A000FF1FED58FF4F8591949190931B028093FE
:1013B0001A02F80184918093190257CE2F3F31050C
:1013C0004105510509F00CF452C068E478EE81E063
:1013D00090E0A70196010E94070C215031094109B4
:1013E000510984E0C111ADCE83E02F3F31054105A5
:1013F000510539F134F162E17AE780E090E0A7012C
:1014000096010E94070C215031094109510984E0DD
:101410002F3F310541055105A1F098F08AE0759400
:101420006794579447948A95D1F7A301920121506C
:1014300031094109510985E004C09C0181E0C111D5
:10144000A7CE95B5987F892B85BD27BD2FEF3FEFA0
:10145000A90120932602309327024093280250933B
:10146000290280916E00826080936E00A0CE82E09F
:10147000E6CFF12CE12C60E072E18AE790E0A70171
:1014800096010E94070C215031094109510991E050
:1014900021153105F1E04F0751056CF068E478EE55
:1014A00081E090E0A70196010E94070C21503109CC
:1014B0004109510993E0C13009F070CE809181005B
:1014C000887F892B80938100309389002093880046
:1014D0008FEF9FEFDC018093220290932302A09371
:1014E0002402B093250280916F00826080936F0088
:1014F0005ECE2093B3002FEF3FEFA90120931E0291
:1015000030931F024093200250932102809170007B
:101510008260809370004BCE1092300210922F02A6
:101520007ECEC111D1CE0E949501C0905802D090BC
:101530005902E0905A02F0905B029B01AC012C1919
:101540003D094E095F0969017A016091570270E017
:101550006F5F7F4F80ED97E00E94D10BCB010A9621
:10156000092E000CAA0BBB0B8C159D05AE05BF0503
:1015700008F04CC0E0901B01F0901C01C090550297
:10158000D09056028091190190911A01C816D9067F
:101590000CF0CFC0C601019690935602809355027D
:1015A000A0905502B090560280901B0190901C01B3
:1015B0006A2D882D0E94230461E086E093E00E945A
:1015C00035046C2D8E2D0E942304E814F90419F4BF
:1015D000CA14DB0489F0C701880F991F8F5C9D4FE7
:1015E000C80ED91ED6018C91882309F4BDC062E0D3
:1015F00086E093E00E9435040E94950160935802B2
:101600007093590280935A0290935B0280911F015C
:10161000882309F481C020911D0130911E01809121
:101620001B0190911C012817390709F075C0209102
:10163000190130911A018091550290915602281794
:10164000390709F069C010921F010E947A0360E017
:1016500082E00E94230462EF71E086E093E00E9442
:10166000BC0461E080E00E9423046CEF71E086E03E
:1016700093E00E94BC0480915302909154020E9416
:10168000110563E072E086E093E00E94BC04809163
:101690005102909152020E941105E0905302F09085
:1016A000540280915102909152028E159F0534F59B
:1016B000F0925202E092510290E080E00E94BB0B57
:1016C000E81629F06E2D90E080E00E94C30BC091D7
:1016D000520281E090E00E94BB0BC81729F06C2FEA
:1016E00081E090E00E94C30B60E080E00E94230450
:1016F00068E072E086E093E00E94BC0460ED77E071
:1017000080E090E00E946301109257021092540210
:10171000109253020E945704E0E0F0E0EF2B09F42E
:1017200081CC0E943702882309F475CC0E94000006
:1017300072CC8C159D051CF4C60101972DCF8091AC
:101740001D0190911E01E816F9063CF4C7010196AF
:1017500090931C0180931B0123CF8E159F050CF0E5
:101760001FCFC7010197F4CF6DEB71E086E093E0E6
:101770000E94BC0441CFF999FECF92BD81BDF89A79
:10178000992780B50895262FF999FECF1FBA92BDEB
:1017900081BD20BD0FB6F894FA9AF99A0FBE019652
:1017A000089597FB072E16F4009407D077FD09D013
:1017B0000E94260C07FC05D03EF4909581959F4F22
:1017C0000895709561957F4F0895A1E21A2EAA1B86
:1017D000BB1BFD010DC0AA1FBB1FEE1FFF1FA217E1
:1017E000B307E407F50720F0A21BB30BE40BF50BDE
:1017F000661F771F881F991F1A9469F76095709567
:10180000809590959B01AC01BD01CF010895052EF7
:1018100097FB1EF400940E941E0C57FD07D00E94F7
:10182000E50B07FC03D04EF40C941E0C509540952C
:10183000309521953F4F4F4F5F4F0895909580957C
:10184000709561957F4F8F4F9F4F0895AA1BBB1BCB
:1018500051E107C0AA1FBB1FA617B70710F0A61BB0
:10186000B70B881F991F5A95A9F780959095BC01D1
:10187000CD010895EE0FFF1F0590F491E02D09941E
:10188000F894FFCF0000000E0E00000000000E15BF
:101890001F1F150000000E1B1C0E0000FF01000F93
:1018A00000020001F7008F00EE018F0072018F002F
:1018B00037018F00EE0147007201D60037011E018B
:1018C00006018F000B028F0010038F0093028F0020
:1018D0000B0247001003D60093021E01F7008F0091
:1018E000EE018F0072018F0037018F00EE0147007B
:1018F0007201D60037011E01370147004A01470037
:101900005D0147005D014700720147008801470003
:10191000880147009F014700B8018F00EE011E01BA
:10192000000000006D02CD01FA01BA022B0209028B
:101930001D02000000003504CD01DB02DA020D0AB1
:101940000020004E455854204C4556454C0050410F
:10195000432D4D414E2100415252494241004142E6
:10196000414A4F004445524543484100495A515568
:1019700049455244410047414D45204F564552008C
:1019800053636F72653A002048693A004E4557200C
:0C1990004849474853434F52452100008E
:107E0000112484B714BE81FFF0D085E080938100F7
:107E100082E08093C00088E18093C10086E0809377
:107E2000C20080E18093C4008EE0C9D0259A86E02C
:107E300020E33CEF91E0309385002093840096BBD3
:107E4000B09BFECF1D9AA8958150A9F7CC24DD24C4
:107E500088248394B5E0AB2EA1E19A2EF3E0BF2EE7
:107E6000A2D0813461F49FD0082FAFD0023811F036
:107E7000013811F484E001C083E08DD089C08234E0
:107E800011F484E103C0853419F485E0A6D080C0E4
:107E9000853579F488D0E82EFF2485D0082F10E0AE
:107EA000102F00270E291F29000F111F8ED06801E7
:107EB0006FC0863521F484E090D080E0DECF843638
:107EC00009F040C070D06FD0082F6DD080E0C81688
:107ED00080E7D80618F4F601B7BEE895C0E0D1E017
:107EE00062D089930C17E1F7F0E0CF16F0E7DF06D8
:107EF00018F0F601B7BEE89568D007B600FCFDCFD4
:107F0000A601A0E0B1E02C9130E011968C91119780
:107F100090E0982F8827822B932B1296FA010C0160
:107F200087BEE89511244E5F5F4FF1E0A038BF0790
:107F300051F7F601A7BEE89507B600FCFDCF97BE46
:107F4000E89526C08437B1F42ED02DD0F82E2BD052
:107F50003CD0F601EF2C8F010F5F1F4F84911BD097
:107F6000EA94F801C1F70894C11CD11CFA94CF0C13
:107F7000D11C0EC0853739F428D08EE10CD085E9AC
:107F80000AD08FE07ACF813511F488E018D01DD067
:107F900080E101D065CF982F8091C00085FFFCCF94
:107FA0009093C60008958091C00087FFFCCF809118
:107FB000C00084FD01C0A8958091C6000895E0E648
:107FC000F0E098E1908380830895EDDF803219F02E
:107FD00088E0F5DFFFCF84E1DECF1F93182FE3DFCA
:107FE0001150E9F7F2DF1F91089580E0E8DFEE27F6
:047FF000FF270994CA
:027FFE00040479
:00000001FF
